{
  "_format": "hh-sol-artifact-1",
  "contractName": "LiPage",
  "sourceName": "contracts/lipage.sol",
  "abi": [
    {
      "inputs": [
        {
          "internalType": "address",
          "name": "initialOwner",
          "type": "address"
        },
        {
          "internalType": "string",
          "name": "_name",
          "type": "string"
        },
        {
          "internalType": "string",
          "name": "_symbol",
          "type": "string"
        },
        {
          "internalType": "string",
          "name": "_uri",
          "type": "string"
        },
        {
          "internalType": "uint24",
          "name": "_royaltyAmount",
          "type": "uint24"
        }
      ],
      "stateMutability": "nonpayable",
      "type": "constructor"
    },
    {
      "inputs": [
        {
          "internalType": "address",
          "name": "operator",
          "type": "address"
        },
        {
          "internalType": "address",
          "name": "owner",
          "type": "address"
        }
      ],
      "name": "ERC1155InsufficientApprovalForAll",
      "type": "error"
    },
    {
      "inputs": [
        {
          "internalType": "address",
          "name": "sender",
          "type": "address"
        },
        {
          "internalType": "uint256",
          "name": "balance",
          "type": "uint256"
        },
        {
          "internalType": "uint256",
          "name": "needed",
          "type": "uint256"
        },
        {
          "internalType": "uint256",
          "name": "tokenId",
          "type": "uint256"
        }
      ],
      "name": "ERC1155InsufficientBalance",
      "type": "error"
    },
    {
      "inputs": [
        {
          "internalType": "address",
          "name": "approver",
          "type": "address"
        }
      ],
      "name": "ERC1155InvalidApprover",
      "type": "error"
    },
    {
      "inputs": [
        {
          "internalType": "uint256",
          "name": "idsLength",
          "type": "uint256"
        },
        {
          "internalType": "uint256",
          "name": "valuesLength",
          "type": "uint256"
        }
      ],
      "name": "ERC1155InvalidArrayLength",
      "type": "error"
    },
    {
      "inputs": [
        {
          "internalType": "address",
          "name": "operator",
          "type": "address"
        }
      ],
      "name": "ERC1155InvalidOperator",
      "type": "error"
    },
    {
      "inputs": [
        {
          "internalType": "address",
          "name": "receiver",
          "type": "address"
        }
      ],
      "name": "ERC1155InvalidReceiver",
      "type": "error"
    },
    {
      "inputs": [
        {
          "internalType": "address",
          "name": "sender",
          "type": "address"
        }
      ],
      "name": "ERC1155InvalidSender",
      "type": "error"
    },
    {
      "inputs": [
        {
          "internalType": "address",
          "name": "owner",
          "type": "address"
        }
      ],
      "name": "OwnableInvalidOwner",
      "type": "error"
    },
    {
      "inputs": [
        {
          "internalType": "address",
          "name": "account",
          "type": "address"
        }
      ],
      "name": "OwnableUnauthorizedAccount",
      "type": "error"
    },
    {
      "anonymous": false,
      "inputs": [
        {
          "indexed": true,
          "internalType": "address",
          "name": "account",
          "type": "address"
        },
        {
          "indexed": true,
          "internalType": "address",
          "name": "operator",
          "type": "address"
        },
        {
          "indexed": false,
          "internalType": "bool",
          "name": "approved",
          "type": "bool"
        }
      ],
      "name": "ApprovalForAll",
      "type": "event"
    },
    {
      "anonymous": false,
      "inputs": [
        {
          "indexed": true,
          "internalType": "address",
          "name": "previousOwner",
          "type": "address"
        },
        {
          "indexed": true,
          "internalType": "address",
          "name": "newOwner",
          "type": "address"
        }
      ],
      "name": "OwnershipTransferred",
      "type": "event"
    },
    {
      "anonymous": false,
      "inputs": [
        {
          "indexed": true,
          "internalType": "address",
          "name": "operator",
          "type": "address"
        },
        {
          "indexed": true,
          "internalType": "address",
          "name": "from",
          "type": "address"
        },
        {
          "indexed": true,
          "internalType": "address",
          "name": "to",
          "type": "address"
        },
        {
          "indexed": false,
          "internalType": "uint256[]",
          "name": "ids",
          "type": "uint256[]"
        },
        {
          "indexed": false,
          "internalType": "uint256[]",
          "name": "values",
          "type": "uint256[]"
        }
      ],
      "name": "TransferBatch",
      "type": "event"
    },
    {
      "anonymous": false,
      "inputs": [
        {
          "indexed": true,
          "internalType": "address",
          "name": "operator",
          "type": "address"
        },
        {
          "indexed": true,
          "internalType": "address",
          "name": "from",
          "type": "address"
        },
        {
          "indexed": true,
          "internalType": "address",
          "name": "to",
          "type": "address"
        },
        {
          "indexed": false,
          "internalType": "uint256",
          "name": "id",
          "type": "uint256"
        },
        {
          "indexed": false,
          "internalType": "uint256",
          "name": "value",
          "type": "uint256"
        }
      ],
      "name": "TransferSingle",
      "type": "event"
    },
    {
      "anonymous": false,
      "inputs": [
        {
          "indexed": false,
          "internalType": "string",
          "name": "value",
          "type": "string"
        },
        {
          "indexed": true,
          "internalType": "uint256",
          "name": "id",
          "type": "uint256"
        }
      ],
      "name": "URI",
      "type": "event"
    },
    {
      "anonymous": false,
      "inputs": [
        {
          "indexed": true,
          "internalType": "address",
          "name": "operator",
          "type": "address"
        },
        {
          "indexed": false,
          "internalType": "bool",
          "name": "authorized",
          "type": "bool"
        }
      ],
      "name": "UpdateOperator",
      "type": "event"
    },
    {
      "inputs": [
        {
          "internalType": "address",
          "name": "account",
          "type": "address"
        },
        {
          "internalType": "uint256",
          "name": "id",
          "type": "uint256"
        }
      ],
      "name": "balanceOf",
      "outputs": [
        {
          "internalType": "uint256",
          "name": "",
          "type": "uint256"
        }
      ],
      "stateMutability": "view",
      "type": "function"
    },
    {
      "inputs": [
        {
          "internalType": "address[]",
          "name": "accounts",
          "type": "address[]"
        },
        {
          "internalType": "uint256[]",
          "name": "ids",
          "type": "uint256[]"
        }
      ],
      "name": "balanceOfBatch",
      "outputs": [
        {
          "internalType": "uint256[]",
          "name": "",
          "type": "uint256[]"
        }
      ],
      "stateMutability": "view",
      "type": "function"
    },
    {
      "inputs": [
        {
          "internalType": "address",
          "name": "from",
          "type": "address"
        },
        {
          "internalType": "uint256",
          "name": "tokenId",
          "type": "uint256"
        },
        {
          "internalType": "uint256",
          "name": "amount",
          "type": "uint256"
        }
      ],
      "name": "burn",
      "outputs": [],
      "stateMutability": "nonpayable",
      "type": "function"
    },
    {
      "inputs": [
        {
          "internalType": "address",
          "name": "from",
          "type": "address"
        },
        {
          "internalType": "uint256[]",
          "name": "_tokenIds",
          "type": "uint256[]"
        },
        {
          "internalType": "uint256[]",
          "name": "_amounts",
          "type": "uint256[]"
        }
      ],
      "name": "burnBatch",
      "outputs": [],
      "stateMutability": "nonpayable",
      "type": "function"
    },
    {
      "inputs": [
        {
          "internalType": "address",
          "name": "account",
          "type": "address"
        },
        {
          "internalType": "address",
          "name": "operator",
          "type": "address"
        }
      ],
      "name": "isApprovedForAll",
      "outputs": [
        {
          "internalType": "bool",
          "name": "",
          "type": "bool"
        }
      ],
      "stateMutability": "view",
      "type": "function"
    },
    {
      "inputs": [],
      "name": "maxMintPerUser",
      "outputs": [
        {
          "internalType": "uint256",
          "name": "",
          "type": "uint256"
        }
      ],
      "stateMutability": "view",
      "type": "function"
    },
    {
      "inputs": [
        {
          "internalType": "uint256",
          "name": "",
          "type": "uint256"
        }
      ],
      "name": "maxMinted",
      "outputs": [
        {
          "internalType": "uint256",
          "name": "",
          "type": "uint256"
        }
      ],
      "stateMutability": "view",
      "type": "function"
    },
    {
      "inputs": [
        {
          "internalType": "address",
          "name": "to",
          "type": "address"
        },
        {
          "internalType": "uint256",
          "name": "tokenId",
          "type": "uint256"
        },
        {
          "internalType": "uint256",
          "name": "amount",
          "type": "uint256"
        }
      ],
      "name": "mint",
      "outputs": [],
      "stateMutability": "nonpayable",
      "type": "function"
    },
    {
      "inputs": [
        {
          "internalType": "address",
          "name": "to",
          "type": "address"
        },
        {
          "internalType": "uint256[]",
          "name": "_tokenIds",
          "type": "uint256[]"
        },
        {
          "internalType": "uint256[]",
          "name": "_amounts",
          "type": "uint256[]"
        }
      ],
      "name": "mintBatch",
      "outputs": [],
      "stateMutability": "nonpayable",
      "type": "function"
    },
    {
      "inputs": [],
      "name": "name",
      "outputs": [
        {
          "internalType": "string",
          "name": "",
          "type": "string"
        }
      ],
      "stateMutability": "view",
      "type": "function"
    },
    {
      "inputs": [],
      "name": "owner",
      "outputs": [
        {
          "internalType": "address",
          "name": "",
          "type": "address"
        }
      ],
      "stateMutability": "view",
      "type": "function"
    },
    {
      "inputs": [],
      "name": "renounceOwnership",
      "outputs": [],
      "stateMutability": "nonpayable",
      "type": "function"
    },
    {
      "inputs": [
        {
          "internalType": "uint256",
          "name": "",
          "type": "uint256"
        },
        {
          "internalType": "uint256",
          "name": "_salePrice",
          "type": "uint256"
        }
      ],
      "name": "royaltyInfo",
      "outputs": [
        {
          "internalType": "address",
          "name": "",
          "type": "address"
        },
        {
          "internalType": "uint256",
          "name": "",
          "type": "uint256"
        }
      ],
      "stateMutability": "view",
      "type": "function"
    },
    {
      "inputs": [
        {
          "internalType": "address",
          "name": "from",
          "type": "address"
        },
        {
          "internalType": "address",
          "name": "to",
          "type": "address"
        },
        {
          "internalType": "uint256[]",
          "name": "ids",
          "type": "uint256[]"
        },
        {
          "internalType": "uint256[]",
          "name": "amounts",
          "type": "uint256[]"
        },
        {
          "internalType": "bytes",
          "name": "data",
          "type": "bytes"
        }
      ],
      "name": "safeBatchTransferFrom",
      "outputs": [],
      "stateMutability": "nonpayable",
      "type": "function"
    },
    {
      "inputs": [
        {
          "internalType": "address",
          "name": "from",
          "type": "address"
        },
        {
          "internalType": "address",
          "name": "to",
          "type": "address"
        },
        {
          "internalType": "uint256",
          "name": "id",
          "type": "uint256"
        },
        {
          "internalType": "uint256",
          "name": "amount",
          "type": "uint256"
        },
        {
          "internalType": "bytes",
          "name": "data",
          "type": "bytes"
        }
      ],
      "name": "safeTransferFrom",
      "outputs": [],
      "stateMutability": "nonpayable",
      "type": "function"
    },
    {
      "inputs": [
        {
          "internalType": "address",
          "name": "operator",
          "type": "address"
        },
        {
          "internalType": "bool",
          "name": "approved",
          "type": "bool"
        }
      ],
      "name": "setApprovalForAll",
      "outputs": [],
      "stateMutability": "nonpayable",
      "type": "function"
    },
    {
      "inputs": [
        {
          "internalType": "uint256",
          "name": "_maxMintPerUser",
          "type": "uint256"
        }
      ],
      "name": "setMaxMintPerUser",
      "outputs": [],
      "stateMutability": "nonpayable",
      "type": "function"
    },
    {
      "inputs": [
        {
          "internalType": "uint24",
          "name": "_amount",
          "type": "uint24"
        }
      ],
      "name": "setRoyaltyAmount",
      "outputs": [],
      "stateMutability": "nonpayable",
      "type": "function"
    },
    {
      "inputs": [
        {
          "internalType": "address",
          "name": "_receiver",
          "type": "address"
        }
      ],
      "name": "setRoyaltyReceiver",
      "outputs": [],
      "stateMutability": "nonpayable",
      "type": "function"
    },
    {
      "inputs": [
        {
          "internalType": "string",
          "name": "_uri",
          "type": "string"
        }
      ],
      "name": "setURI",
      "outputs": [],
      "stateMutability": "nonpayable",
      "type": "function"
    },
    {
      "inputs": [
        {
          "internalType": "bytes4",
          "name": "interfaceId",
          "type": "bytes4"
        }
      ],
      "name": "supportsInterface",
      "outputs": [
        {
          "internalType": "bool",
          "name": "",
          "type": "bool"
        }
      ],
      "stateMutability": "view",
      "type": "function"
    },
    {
      "inputs": [],
      "name": "symbol",
      "outputs": [
        {
          "internalType": "string",
          "name": "",
          "type": "string"
        }
      ],
      "stateMutability": "view",
      "type": "function"
    },
    {
      "inputs": [
        {
          "internalType": "uint256",
          "name": "tokenId",
          "type": "uint256"
        }
      ],
      "name": "totalSupply",
      "outputs": [
        {
          "internalType": "uint256",
          "name": "",
          "type": "uint256"
        }
      ],
      "stateMutability": "view",
      "type": "function"
    },
    {
      "inputs": [
        {
          "internalType": "address",
          "name": "newOwner",
          "type": "address"
        }
      ],
      "name": "transferOwnership",
      "outputs": [],
      "stateMutability": "nonpayable",
      "type": "function"
    },
    {
      "inputs": [
        {
          "internalType": "address",
          "name": "operator",
          "type": "address"
        },
        {
          "internalType": "bool",
          "name": "authorized",
          "type": "bool"
        }
      ],
      "name": "updateOperator",
      "outputs": [],
      "stateMutability": "nonpayable",
      "type": "function"
    },
    {
      "inputs": [
        {
          "internalType": "uint256",
          "name": "_tokenId",
          "type": "uint256"
        }
      ],
      "name": "uri",
      "outputs": [
        {
          "internalType": "string",
          "name": "",
          "type": "string"
        }
      ],
      "stateMutability": "view",
      "type": "function"
    },
    {
      "inputs": [
        {
          "internalType": "address",
          "name": "",
          "type": "address"
        }
      ],
      "name": "userMinted",
      "outputs": [
        {
          "internalType": "uint256",
          "name": "",
          "type": "uint256"
        }
      ],
      "stateMutability": "view",
      "type": "function"
    }
  ],
  "bytecode": "0x6080604052620186a0600a553480156200001857600080fd5b5060405162002334380380620023348339810160408190526200003b9162000238565b60408051602081019091526000815285906200005781620000c2565b506200006381620000d4565b50600562000072858262000397565b50600662000081848262000397565b50600b805462ffffff8316600160a01b026001600160b81b03199091166001600160a01b03881617179055620000b78262000126565b505050505062000463565b6002620000d0828262000397565b5050565b600380546001600160a01b038381166001600160a01b0319831681179093556040519116919082907f8be0079c531659141344cd1fd0a4f28419497f9722a3daafe3b4186f6b6457e090600090a35050565b620001306200013e565b6007620000d0828262000397565b6003546001600160a01b0316331462000171576040805163118cdaa760e01b815233600482015290519081900360240190fd5b565b634e487b7160e01b600052604160045260246000fd5b600082601f8301126200019b57600080fd5b81516001600160401b0380821115620001b857620001b862000173565b604051601f8301601f19908116603f01168101908282118183101715620001e357620001e362000173565b816040528381526020925086838588010111156200020057600080fd5b600091505b8382101562000224578582018301518183018401529082019062000205565b600093810190920192909252949350505050565b600080600080600060a086880312156200025157600080fd5b85516001600160a01b03811681146200026957600080fd5b60208701519095506001600160401b03808211156200028757600080fd5b6200029589838a0162000189565b95506040880151915080821115620002ac57600080fd5b620002ba89838a0162000189565b94506060880151915080821115620002d157600080fd5b50620002e08882890162000189565b925050608086015162ffffff81168114620002fa57600080fd5b809150509295509295909350565b600181811c908216806200031d57607f821691505b6020821081036200033e57634e487b7160e01b600052602260045260246000fd5b50919050565b601f8211156200039257600081815260208120601f850160051c810160208610156200036d5750805b601f850160051c820191505b818110156200038e5782815560010162000379565b5050505b505050565b81516001600160401b03811115620003b357620003b362000173565b620003cb81620003c4845462000308565b8462000344565b602080601f831160018114620004035760008415620003ea5750858301515b600019600386901b1c1916600185901b1785556200038e565b600085815260208120601f198616915b82811015620004345788860151825594840194600190910190840162000413565b5085821015620004535787850151600019600388901b60f8161c191681555b5050505050600190811b01905550565b611ec180620004736000396000f3fe608060405234801561001057600080fd5b50600436106101a85760003560e01c80636d44a3b2116100f9578063bd85b03911610097578063e985e9c511610071578063e985e9c5146103c4578063f242432a14610400578063f2fde38b14610413578063f5298aca1461042657600080fd5b8063bd85b03914610388578063d304c4bc146103a8578063d81d0a15146103b157600080fd5b80638da5cb5b116100d35780638da5cb5b1461033f5780638dc251e31461035a57806395d89b411461036d578063a22cb4651461037557600080fd5b80636d44a3b214610311578063715018a61461032457806383ccaef71461032c57600080fd5b806315dbb015116101665780632eb2c2d6116101405780632eb2c2d6146102b85780634e1273f4146102cb57806352a284a2146102eb5780636b20c454146102fe57600080fd5b806315dbb015146102465780631aa5e872146102665780632a55205a1461028657600080fd5b8062fdd58e146101ad57806301ffc9a7146101d357806302fe5305146101f657806306fdde031461020b5780630e89341c14610220578063156e29f614610233575b600080fd5b6101c06101bb36600461150e565b610439565b6040519081526020015b60405180910390f35b6101e66101e136600461154e565b610461565b60405190151581526020016101ca565b610209610204366004611611565b6104cc565b005b6102136104e4565b6040516101ca91906116b2565b61021361022e3660046116c5565b610572565b6102096102413660046116de565b6105d0565b6101c06102543660046116c5565b60086020526000908152604090205481565b6101c0610274366004611711565b60096020526000908152604090205481565b61029961029436600461172c565b6106bc565b604080516001600160a01b0390931683526020830191909152016101ca565b6102096102c63660046117fd565b6106fe565b6102de6102d93660046118a7565b610766565b6040516101ca91906119a2565b6102096102f93660046119b5565b61083b565b61020961030c3660046119da565b610867565b61020961031f366004611a4e565b6108ec565b6102096109c8565b61020961033a3660046116c5565b6109dc565b6003546040516001600160a01b0390911681526020016101ca565b610209610368366004611711565b6109e9565b610213610a69565b610209610383366004611a4e565b610a76565b6101c06103963660046116c5565b6000908152600c602052604090205490565b6101c0600a5481565b6102096103bf3660046119da565b610a81565b6101e66103d2366004611a8a565b6001600160a01b03918216600090815260016020908152604080832093909416825291909152205460ff1690565b61020961040e366004611abd565b610b1e565b610209610421366004611711565b610b56565b6102096104343660046116de565b610b94565b6000818152602081815260408083206001600160a01b03861684529091529020545b92915050565b60006001600160e01b03198216636cdb3d1360e11b148061049257506001600160e01b031982166303a24d0760e21b145b806104ad57506001600160e01b0319821663152a902d60e11b145b8061045b57506301ffc9a760e01b6001600160e01b031983161461045b565b6104d4610bc3565b60076104e08282611ba2565b5050565b600580546104f190611b22565b80601f016020809104026020016040519081016040528092919081815260200182805461051d90611b22565b801561056a5780601f1061053f5761010080835404028352916020019161056a565b820191906000526020600020905b81548152906001019060200180831161054d57829003601f168201915b505050505081565b60606007805461058190611b22565b905060000361059f576040518060200160405280600081525061045b565b60076105aa83610bf0565b6040516020016105bb929190611c62565b60405160208183030381529060405292915050565b600a546001600160a01b0384166000908152600960205260409020546105f7908390611d0f565b111561064a5760405162461bcd60e51b815260206004820152601860248201527f457863656564206d6178206d696e74207065722075736572000000000000000060448201526064015b60405180910390fd5b6001600160a01b03831660009081526009602052604081208054839290610672908490611d0f565b90915550506000828152600c602052604081208054839290610695908490611d0f565b925050819055506106b783838360405180602001604052806000815250610c83565b505050565b600b5460009081906001600160a01b03811690612710906106e990600160a01b900462ffffff1686611d22565b6106f39190611d39565b915091509250929050565b6001600160a01b038516331480159061071e575061071c85336103d2565b155b1561075257335b60405163313dd6cb60e01b81526001600160a01b0391821660048201529086166024820152604401610641565b61075f8585858585610ce8565b5050505050565b606081518351146107975781518351604051635b05999160e01b815260048101929092526024820152604401610641565b6000835167ffffffffffffffff8111156107b3576107b3611572565b6040519080825280602002602001820160405280156107dc578160200160208202803683370190505b50905060005b84518110156108335760208082028601015161080690602080840287010151610439565b82828151811061081857610818611d5b565b602090810291909101015261082c81611d71565b90506107e2565b509392505050565b610843610bc3565b600b805462ffffff909216600160a01b0262ffffff60a01b19909216919091179055565b60005b82518110156108e05781818151811061088557610885611d5b565b6020026020010151600c60008584815181106108a3576108a3611d5b565b6020026020010151815260200190815260200160002060008282546108c89190611d8a565b909155508190506108d881611d71565b91505061086a565b506106b7838383610d48565b6108f4610bc3565b6001600160a01b0382166109585760405162461bcd60e51b815260206004820152602560248201527f4f776e61626c653a206f70657261746f7220697320746865207a65726f206164604482015264647265737360d81b6064820152608401610641565b816001600160a01b03167f2ee52be9d342458b3d25e07faada7ff9bc06723b4aa24edb6321ac1316b8a9dd82604051610995911515815260200190565b60405180910390a26001600160a01b03919091166000908152600460205260409020805460ff1916911515919091179055565b6109d0610bc3565b6109da6000610d8e565b565b6109e4610bc3565b600a55565b6109f1610bc3565b6001600160a01b038116610a475760405162461bcd60e51b815260206004820152601f60248201527f52656365697665722063616e6e6f74206265207a65726f2061646472657373006044820152606401610641565b600b80546001600160a01b0319166001600160a01b0392909216919091179055565b600680546104f190611b22565b6104e0338383610de0565b610a89610bc3565b60005b8251811015610b0257818181518110610aa757610aa7611d5b565b6020026020010151600c6000858481518110610ac557610ac5611d5b565b602002602001015181526020019081526020016000206000828254610aea9190611d0f565b90915550819050610afa81611d71565b915050610a8c565b506106b783838360405180602001604052806000815250610e89565b6001600160a01b0385163314801590610b3e5750610b3c85336103d2565b155b15610b495733610725565b61075f8585858585610ec7565b610b5e610bc3565b6001600160a01b038116610b8857604051631e4fbdf760e01b815260006004820152602401610641565b610b9181610d8e565b50565b6000828152600c602052604081208054839290610bb2908490611d8a565b909155506106b79050838383610f55565b6003546001600160a01b031633146109da5760405163118cdaa760e01b8152336004820152602401610641565b60606000610bfd83610fbd565b600101905060008167ffffffffffffffff811115610c1d57610c1d611572565b6040519080825280601f01601f191660200182016040528015610c47576020820181803683370190505b5090508181016020015b600019016f181899199a1a9b1b9c1cb0b131b232b360811b600a86061a8153600a8504945084610c5157509392505050565b6001600160a01b038416610cad57604051632bfa23e760e11b815260006004820152602401610641565b60408051600180825260208201869052818301908152606082018590526080820190925290610ce0600087848487611095565b505050505050565b6001600160a01b038416610d1257604051632bfa23e760e11b815260006004820152602401610641565b6001600160a01b038516610d3b57604051626a0d4560e21b815260006004820152602401610641565b61075f8585858585611095565b6001600160a01b038316610d7157604051626a0d4560e21b815260006004820152602401610641565b6106b7836000848460405180602001604052806000815250611095565b600380546001600160a01b038381166001600160a01b0319831681179093556040519116919082907f8be0079c531659141344cd1fd0a4f28419497f9722a3daafe3b4186f6b6457e090600090a35050565b816001600160a01b0316836001600160a01b031603610e1c5760405162ced3e160e81b81526001600160a01b0383166004820152602401610641565b6001600160a01b03838116600081815260016020908152604080832094871680845294825291829020805460ff191686151590811790915591519182527f17307eab39ab6107e8899845ad3d59bd9653f200f220920489ca2b5937696c31910160405180910390a3505050565b6001600160a01b038416610eb357604051632bfa23e760e11b815260006004820152602401610641565b610ec1600085858585611095565b50505050565b6001600160a01b038416610ef157604051632bfa23e760e11b815260006004820152602401610641565b6001600160a01b038516610f1a57604051626a0d4560e21b815260006004820152602401610641565b60408051600180825260208201869052818301908152606082018590526080820190925290610f4c8787848487611095565b50505050505050565b6001600160a01b038316610f7e57604051626a0d4560e21b815260006004820152602401610641565b604080516001808252602082018590528183019081526060820184905260a0820190925260006080820181815291929161075f91879185908590611095565b60008072184f03e93ff9f4daa797ed6e38ed64bf6a1f0160401b8310610ffc5772184f03e93ff9f4daa797ed6e38ed64bf6a1f0160401b830492506040015b6d04ee2d6d415b85acef81000000008310611028576d04ee2d6d415b85acef8100000000830492506020015b662386f26fc10000831061104657662386f26fc10000830492506010015b6305f5e100831061105e576305f5e100830492506008015b612710831061107257612710830492506004015b60648310611084576064830492506002015b600a831061045b5760010192915050565b81518351146110c45782518251604051635b05999160e01b815260048101929092526024820152604401610641565b3360005b84518110156111d3576020818102868101820151908601909101516001600160a01b0389161561117b576000828152602081815260408083206001600160a01b038d16845290915290205481811015611154576040516303dee4c560e01b81526001600160a01b038b166004820152602481018290526044810183905260648101849052608401610641565b6000838152602081815260408083206001600160a01b038e16845290915290209082900390555b6001600160a01b038816156111c0576000828152602081815260408083206001600160a01b038c168452909152812080548392906111ba908490611d0f565b90915550505b5050806111cc90611d71565b90506110c8565b5083516001036112715760208401516000906020850151909150866001600160a01b0316886001600160a01b0316846001600160a01b03167fc3d58168c5ae7397731d063d5bbf3d657854427343f4c083240f7aacaa2d0f628585604051611245929190918252602082015260400190565b60405180910390a46001600160a01b0387161561126a5761126a8389898585896112e5565b5050610ce0565b846001600160a01b0316866001600160a01b0316826001600160a01b03167f4a39dc06d4c0dbc64b70af90fd698a233a518aa5d07e595d983b8c0526c8f7fb87876040516112c0929190611d9d565b60405180910390a46001600160a01b03851615610ce057610ce0818787878787611409565b6001600160a01b0384163b15610ce05760405163f23a6e6160e01b81526001600160a01b0385169063f23a6e61906113299089908990889088908890600401611dcb565b6020604051808303816000875af1925050508015611364575060408051601f3d908101601f1916820190925261136191810190611e10565b60015b6113cd573d808015611392576040519150601f19603f3d011682016040523d82523d6000602084013e611397565b606091505b5080516000036113c557604051632bfa23e760e11b81526001600160a01b0386166004820152602401610641565b805181602001fd5b6001600160e01b0319811663f23a6e6160e01b14610f4c57604051632bfa23e760e11b81526001600160a01b0386166004820152602401610641565b6001600160a01b0384163b15610ce05760405163bc197c8160e01b81526001600160a01b0385169063bc197c819061144d9089908990889088908890600401611e2d565b6020604051808303816000875af1925050508015611488575060408051601f3d908101601f1916820190925261148591810190611e10565b60015b6114b6573d808015611392576040519150601f19603f3d011682016040523d82523d6000602084013e611397565b6001600160e01b0319811663bc197c8160e01b14610f4c57604051632bfa23e760e11b81526001600160a01b0386166004820152602401610641565b80356001600160a01b038116811461150957600080fd5b919050565b6000806040838503121561152157600080fd5b61152a836114f2565b946020939093013593505050565b6001600160e01b031981168114610b9157600080fd5b60006020828403121561156057600080fd5b813561156b81611538565b9392505050565b634e487b7160e01b600052604160045260246000fd5b604051601f8201601f1916810167ffffffffffffffff811182821017156115b1576115b1611572565b604052919050565b600067ffffffffffffffff8311156115d3576115d3611572565b6115e6601f8401601f1916602001611588565b90508281528383830111156115fa57600080fd5b828260208301376000602084830101529392505050565b60006020828403121561162357600080fd5b813567ffffffffffffffff81111561163a57600080fd5b8201601f8101841361164b57600080fd5b61165a848235602084016115b9565b949350505050565b60005b8381101561167d578181015183820152602001611665565b50506000910152565b6000815180845261169e816020860160208601611662565b601f01601f19169290920160200192915050565b60208152600061156b6020830184611686565b6000602082840312156116d757600080fd5b5035919050565b6000806000606084860312156116f357600080fd5b6116fc846114f2565b95602085013595506040909401359392505050565b60006020828403121561172357600080fd5b61156b826114f2565b6000806040838503121561173f57600080fd5b50508035926020909101359150565b600067ffffffffffffffff82111561176857611768611572565b5060051b60200190565b600082601f83011261178357600080fd5b813560206117986117938361174e565b611588565b82815260059290921b840181019181810190868411156117b757600080fd5b8286015b848110156117d257803583529183019183016117bb565b509695505050505050565b600082601f8301126117ee57600080fd5b61156b838335602085016115b9565b600080600080600060a0868803121561181557600080fd5b61181e866114f2565b945061182c602087016114f2565b9350604086013567ffffffffffffffff8082111561184957600080fd5b61185589838a01611772565b9450606088013591508082111561186b57600080fd5b61187789838a01611772565b9350608088013591508082111561188d57600080fd5b5061189a888289016117dd565b9150509295509295909350565b600080604083850312156118ba57600080fd5b823567ffffffffffffffff808211156118d257600080fd5b818501915085601f8301126118e657600080fd5b813560206118f66117938361174e565b82815260059290921b8401810191818101908984111561191557600080fd5b948201945b8386101561193a5761192b866114f2565b8252948201949082019061191a565b9650508601359250508082111561195057600080fd5b5061195d85828601611772565b9150509250929050565b600081518084526020808501945080840160005b838110156119975781518752958201959082019060010161197b565b509495945050505050565b60208152600061156b6020830184611967565b6000602082840312156119c757600080fd5b813562ffffff8116811461156b57600080fd5b6000806000606084860312156119ef57600080fd5b6119f8846114f2565b9250602084013567ffffffffffffffff80821115611a1557600080fd5b611a2187838801611772565b93506040860135915080821115611a3757600080fd5b50611a4486828701611772565b9150509250925092565b60008060408385031215611a6157600080fd5b611a6a836114f2565b915060208301358015158114611a7f57600080fd5b809150509250929050565b60008060408385031215611a9d57600080fd5b611aa6836114f2565b9150611ab4602084016114f2565b90509250929050565b600080600080600060a08688031215611ad557600080fd5b611ade866114f2565b9450611aec602087016114f2565b93506040860135925060608601359150608086013567ffffffffffffffff811115611b1657600080fd5b61189a888289016117dd565b600181811c90821680611b3657607f821691505b602082108103611b5657634e487b7160e01b600052602260045260246000fd5b50919050565b601f8211156106b757600081815260208120601f850160051c81016020861015611b835750805b601f850160051c820191505b81811015610ce057828155600101611b8f565b815167ffffffffffffffff811115611bbc57611bbc611572565b611bd081611bca8454611b22565b84611b5c565b602080601f831160018114611c055760008415611bed5750858301515b600019600386901b1c1916600185901b178555610ce0565b600085815260208120601f198616915b82811015611c3457888601518255948401946001909101908401611c15565b5085821015611c525787850151600019600388901b60f8161c191681555b5050505050600190811b01905550565b6000808454611c7081611b22565b60018281168015611c885760018114611c9d57611ccc565b60ff1984168752821515830287019450611ccc565b8860005260208060002060005b85811015611cc35781548a820152908401908201611caa565b50505082870194505b505050508351611ce0818360208801611662565b64173539b7b760d91b9101908152600501949350505050565b634e487b7160e01b600052601160045260246000fd5b8082018082111561045b5761045b611cf9565b808202811582820484141761045b5761045b611cf9565b600082611d5657634e487b7160e01b600052601260045260246000fd5b500490565b634e487b7160e01b600052603260045260246000fd5b600060018201611d8357611d83611cf9565b5060010190565b8181038181111561045b5761045b611cf9565b604081526000611db06040830185611967565b8281036020840152611dc28185611967565b95945050505050565b6001600160a01b03868116825285166020820152604081018490526060810183905260a060808201819052600090611e0590830184611686565b979650505050505050565b600060208284031215611e2257600080fd5b815161156b81611538565b6001600160a01b0386811682528516602082015260a060408201819052600090611e5990830186611967565b8281036060840152611e6b8186611967565b90508281036080840152611e7f8185611686565b9897505050505050505056fea26469706673582212202de2f1324687e87fb9118801e41d3d66a8efef5b4d2cdec96b2c5eb9a9c99aef64736f6c63430008140033",
  "linkReferences": {},
  "deployedLinkReferences": {}
}